:041000009BEF3BF037
:0E100800000EAAEC3BF0010EAAEC3BF0120029
:10773600000EF86E000173EF3CF004D000F0010675
:10774600D8A0020601500210D8B41200F7D7036E73
:10775600839083920350BBEC3BF08384060E026E4B
:10776600300EE82EFED7022EFCD700D083941200EE
:10777600016E01A002D0838801D0839801A202D0B5
:10778600838A01D0839A01A402D0838C01D0839C82
:1077960001A602D0838E1200839E1200046E04504E
:1077A6000F0B026E0450F00B036E838003380F0B31
:1077B600BBEC3BF083840D0EE82EFED700F08394DD
:1077C6000250BBEC3BF083840D0EE82EFED700F092
:1077D60083941200000E0A6E000E096E10D0095036
:1077E6000524076E0A500620086E07C0F6FF08C07B
:1077F600F7FF0800F550D1EC3BF0094A0A2A095078
:107806000524076E0A500620086E07C0F6FF08C05A
:10781600F7FF0800F5500009D8B41200E0D7056E4E
:107826000504D8A410D004507F0F086E08380F0B3B
:10783600066E08500F0B076E0650AAEC3BF0075079
:10784600AAEC3BF01200020E0518D8A41200045050
:10785600BF0F086E08380F0B066E08500F0B076E29
:107866000650AAEC3BF00750AAEC3BF01200000EC3
:10787600BBEC3BF01A0E046EF80EE82EFED7042E73
:10788600FCD700D0030EAAEC3BF0070E046E7D0E6B
:10789600E82EFED7042EFCD700F0030EAAEC3BF030
:1078A6000F0E046E480EE82EFED7042EFCD7030EEC
:1078B600AAEC3BF0020EAAEC3BF0020EAAEC3BF05F
:1078C600080EAAEC3BF0000EAAEC3BF00C0EAAEC5C
:1078D6003BF0000EAAEC3BF0060EAAEC3BF01200C1
:1078E600650EF66E7E0EF76E21EE00F0FF0E0900B5
:1078F600F5CFDEFFE806FBE2650EF66E7D0EF76E4F
:1079060022EE00F0FF0E0900F5CFDEFFE806FBE2EF
:10791600530ED36E000E0F015C6F000E936E000EB9
:107926005D6F94809482948C948E010EC26E000ECC
:10793600C16E240EC06E000E806E000E5B6F9282CA
:10794600929492969298928C928E000E8C6E000E65
:107956005E6F000E956E3AEC3CF004EC08F0010EFA
:10796600046E010E12EC3CF09F0E056E7F0E066E45
:10797600EDEC3BF0010E046E020E12EC3CF0EB0E49
:10798600056E7F0E066EEDEC3BF0080E0C6E9D0E3E
:107996000B6E060EE82EFED70B2EFCD70C2EFAD752
:1079A60004EC08F0010E046E010E12EC3CF0CD0E54
:1079B600056E7F0E066EEDEC3BF0010E046E020EB8
:1079C60012EC3CF0C20E056E7F0E066EEDEC3BF03F
:1079D600080E0C6E9D0E0B6E060EE82EFED70B2EB5
:1079E600FCD70C2EFAD704EC08F0010E046E010E3B
:1079F60012EC3CF0D70E056E7F0E066EEDEC3BF0FA
:107A0600010E046E020E12EC3CF0AC0E056E7F0EFB
:107A1600066EEDEC3BF0080E0C6E9D0E0B6E060E20
:107A2600E82EFED70B2EFCD70C2EFAD704EC08F066
:107A3600010E046E010E12EC3CF0E10E056E7F0E97
:107A4600066EEDEC3BF0010E046E020E12EC3CF0FD
:107A5600B70E056E7F0E066EEDEC3BF0080E0C6E53
:107A66009D0E0B6E060EE82EFED70B2EFCD70C2EA7
:107A7600FAD704EC08F0010E046E010E12EC3CF08D
:107A8600920E056E7F0E066EEDEC3BF0100E0C6E40
:107A9600390E0B6E0E0EE82EFED70B2EFCD70C2ED3
:107AA600FAD77C0EBB6E000EBE6E000E0F015D6F28
:107AB6009494000EBA6E0C0EBD6E000EBC6EBA84A7
:107AC600000E106E000E0F6E808880968094C28223
:107AD600C2B2FED7C4CF0DF00E6A82B082B258D0C1
:107AE60082AC82BE55D004EC08F0010E046E010E85
:107AF60012EC3CF0830E056E7F0E066EEDEC3BF04D
:107B0600010E046E020E12EC3CF0F50E056E7F0EB1
:107B1600066EEDEC3BF0809880848096000EBE6E7B
:107B2600000E106E000E0F6E23D0D8900F34D96E53
:107B36001034DA6E000ED926010EDA22DF508A6E74
:107B46000DC001F00EC002F0A0EC3BF07F0E0F1846
:107B56001010D8B403D00F4A102A04D0000E106EAD
:107B6600000E0F6EC282C2B2FED7C4CF0DF00E6AEF
:107B760082AEDBD704EC08F0010E046E010E12ECA7
:107B86003CF0920E056E7F0E066EEDEC3BF09CD738
:107B960082B282B058D082AC82BE55D004EC08F0D6
:107BA600010E046E010E12EC3CF0650E056E7F0EA2
:107BB600066EEDEC3BF0010E046E020E12EC3CF08C
:107BC600F50E056E7F0E066EEDEC3BF08098809408
:107BD6008086000EBE6E000E106E000E0F6E23D055
:107BE600D8900F34D96E1034DA6E000ED926020EF4
:107BF600DA22DF508A6E0DC001F00EC002F0A0EC52
:107C06003BF07F0E0F181010D8B403D00F4A102A7D
:107C160004D0000E106E000E0F6EC282C2B2FED7E6
:107C2600C4CF0DF00E6A82AEDBD704EC08F0010E6D
:107C3600046E010E12EC3CF0920E056E7F0E066E7F
:107C4600EDEC3BF041D782BC82B03ED782A282BE29
:107C56003BD704EC08F0010E046E010E12EC3CF06A
:107C6600740E056E7F0E066EEDEC3BF0010E046E93
:107C7600020E12EC3CF0F50E056E7F0E066EEDEC74
:107C86003BF0000E8A6E640EBE6E59D08098C2829A
:107C9600C2B2FED7C4CF0DF00E6A80AC0FD0BE5074
:107CA6000B6E0C6AEC0E0B24FF0E0C20800BD8B466
:107CB60002D0000E02D0BE50EC0FBE6E80AE11D0C8
:107CC600BE500B6E0C6A140E0B26000E0C220CBE58
:107CD60005D00C04D8A002D0BE6803D0BE50140F45
:107CE600BE6E0E500AE1510E0D5CD8B006D0BA50E9
:107CF600FC0B0109BA6E7C0EBB6E0E5004E1510EF0
:107D06000D5CD8A00AD00E5008E1A00E0D5CD8B0CC
:107D160004D0FC0EBA16F90EBB6E0E5004E1A00E8E
:107D26000D5CD8A004D0FC0EBA167C0EBB6E410EBC
:107D36000B6EEE0EE82EFED70B2EFCD700D082AED1
:107D4600A5D704EC08F0010E046E010E12EC3CF00F
:107D5600920E056E7F0E066EEDEC3BF0B5D6000476
:107D66000008000C001000140018001C002000245D
:107D76000028002C003000340038003C004000444D
:107D86000048004C005000540058005C006000643D
:107D96000068006C007000740078007C008000832E
:107DA6000087008B008F00930097009B009F00A325
:107DB60000A700AB00AF00B300B700BB00BF00C315
:107DC60000C700CB00CF00D300D700DB00DF00E305
:107DD60000E700EB00EF00F300F700FB00FF00FBFD
:107DE60000F700F300EF00EB00E700E300DF00DB45
:107DF60000D700D300CF00CB00C700C300BF00BB35
:107E060000B700B300AF00AB00A700A3009F009B24
:107E160000970093008F008B008700830080007C12
:107E2600007800740070006C006800640060005CFC
:107E3600005800540050004C004800440040003CEC
:107E4600003800340030002C002800240020001CDC
:107E5600001800140010000C000800040000008048
:107E66000086008C00920098009E00A500AA00B033
:107E760000B600BC00C100C600CB00D000D500DAB9
:107E860000DE00E200E600EA00ED00F000F300F597
:107E960000F800FA00FB00FD00FE00FE00FF00FFF8
:107EA60000FF00FE00FE00FD00FB00FA00F800F5F2
:107EB60000F300F000ED00EA00E600E200DE00DA82
:107EC60000D500D000CB00C600C100BC00B600B093
:107ED60000AA00A5009E00980092008C00860080F3
:107EE60000790073006D00670061005A0055004F6D
:107EF60000490043003E00390034002F002A0025C7
:107F06000021001D001900150012000F000C000AC8
:107F16000007000500040002000100010000000047
:107F26000000000100010002000400050007000A2D
:107F3600000C000F001200150019001D002100257D
:107F4600002A002F00340039003E00430049004F4C
:107F56000055005A00610067006D00730079004DFE
:107F66006F737472616E646F2054524920004D6FB6
:107F7600737472616E646F2050574D20004D6F739D
:107F86007472616E646F2053494E200053656C65B0
:107F96006374204F70633A200047656E65726164B2
:107FA6006F72204465005365696E616C20545249B6
:107FB600005365696E616C2050574D005365696EBC
:107FC600616C2053494E004F7063696F6E3A2031E1
:107FD600004F7063696F6E3A2032004F7063696FAD
:107FE6006E3A20330046756E63696F6E6573005393
:097FF600616C6972203420000066
:020000040020DA
:08000000FFFFFFFFFFFFFFFF00
:020000040030CA
:0E00000000285F3CFFD381FF0FC00FE00F40D0
:00000001FF
